:100F2F00140A402CCCCD40CCCCCD40F00000410970
:100F3F00999A411B3333052E00000000000526004F
:100F4F0000000000012200013300012B0001080006
:0C0F5F00010901012501011E00011F0015
:041058007FE87E03AC
:10105C00E4FDFCC3ED9FEC9E5015E4FBFA0BBB00CA
:0F106C00010AEB64784A70F50DBD00010C80E4B9
:01107B002252
:10114400758911758CB7758AFED28CE4F58BF58D93
:03115400D28E2216
:03001B00020B775E
:100B7700C0E0C0F0C083C082C0D075D000C000C044
:0D0B870001C002C003C004C005C006C007C5
:100B94007534007D04AFA0121030EF7005F52B12F0
:100BA4000F767D03AFA0121030EF7006752B011283
:100BB4000F767D02AFA0121030EF7006752B021273
:100BC4000F767D01AFA0121030EF7006752B031263
:100BD4000F76E4FDAFA0121030EF7006752B0412EF
:100BE4000F767D07AF80121030EF7008752601F57F
:100BF4002B120F737D05AF80121030EF7009752F23
:100C040001752B01120F737D03AF80121030EF704A
:100C14000C753001752B02752501120F767D01AF1D
:100C240080121030EF700C753101752B037525019E
:100C3400120F767D06AF80121030EF700B7527010E
:100C4400752B01F525120F767D04AF80121030EF5D
:100C5400700B752801752B02F525120F767D02AFF6
:100C640080121030EF700B752901752B03F52512D6
:100C74000F76E4FDAF80121030EF700B7532017502
:100C84002B04F525120F76752200753300E534D355
:100C940094045018742E2534F8E62522F52274267F
:0C0CA4002534F8E62533F533053480E1F3
:100CB000D007D006D005D004D003D002D001D00098
:0B0CC000D0D0D082D083D0F0D0E03242
:03000B000210FDE3
:1010FD00C0E0B2B430B409E52CF58C852D8A80079B
:0A110D00E523F58C85248AD0E0323A
:03000300020FB138
:100FB100C0E0C0D075D000C002C003C004C005C0ED
:100FC10006C007E51F60077FD07E0712105CD007BF
:0F0FD100D006D005D004D003D002D0D0D0E0326B
:100CCB0075FFDE75FFAD75B214E4F5E175E21475D1
:100CDB00E340D2AFD2A8D2AAD288D28AD2A9D2ABC1
:100CEB00121144E4FF121172121169E4FDFF12108C
:100CFB00E17D017F011210E1E4FDAFA41211177D1C
:100D0B0002AFA41211177D01AFA41211177D04AF0E
:100D1B00A41211177D03AFA41211177D06AFA412F5
:100D2B0011177D05AFA41211177D07AFA412111770
:100D3B00E4FDAFA61211177D01AFA61211177D02AC
:100D4B00AFA61211177D03AFA61211177D04AFA624
:0D0D5B00121117AFA512117A12115780FB6B
:10115700E52B6508600BE509B40103020ED2120EF8
:021167007322F1
:030F7300752501E0
:100F7600E52B65086034E52BD395084015E5256516
:100F860009600474268013742E252BF876017509E2
:100F96000122E52565096008742E252BF8760122C5
:0B0FA6007426252BF87601E4F50922E3
:100ED200120FE07535008F36753700850838D3E577
:100EE200389536E5356480F8E5376480985033E507
:100EF2003864054537602B751E01AF38121172E553
:100F020038120DF4853808121058742E2538F8E678
:100F1200B40105E4F61210C30538E53870C0053790
:0C0F220080BCE4F51EE5336003120E7382
:010F2E0022A0
:100E73001210087539008F3A753B0085083CC3E5AD
:100E83003C953AE5396480F8E53B6480984035E564
:100E93003CF47003E53BF4602B751E01AF3C12116B
:100EA30072E53C120DF4853C081210587426253C5B
:100EB300F8E6B40105E4F61210C3E53C153C70BE38
:0E0EC300153B80BAE4F51EE5226003120ED244
:010ED10022FE
:100FE000E532B401037F0422E531B401037F03221B
:100FF000E530B401037F0222E52FB401037F012213
:08100000E52EB401027F00227D
:10100800E526B401037F0022E527B401037F01220E
:10101800E528B401037F0222E529B401037F0322F6
:08102800E52AB401027F042255
:1010C300751F01E4FF1211307F0112113012105805
:0E10D300E4FF1211307F01121130E4F51F22EC
:0A0DF40025E025E0240AF8120B6B3D
:080DFE008F408E3F8D3E8C3DBD
:100E0600754400754302754290754146E4FBFA79D4
:100E1600C87842AF44AE43AD42AC41120A01AB4082
:100E2600AA3FA93EA83D1208F8120ADC8E2C8F2D87
:100E3600AC2CAD2DE4120AA3A804A905AA06AB079B
:100E4600AF44AE43AD42AC41120803120ADC8E2316
:100E56008F24C374FF952DF52D74FF952CF52CC3A7
:0C0E660074FF9524F52474FF9523F523F8
:010E7200225D
:101117007401A805088002C333D8FCF45FFEE4A875
:0911270005088002C333D8FC2244
:02103000AC070B
:1010320074017E00A805088005C333CE33CED8F9EB
:10104200FFECFBE4FEEF5BA805088006CEA2E713E7
:05105200CE13D8F8FFE9
:011057002276
:1010E100EF14600D047012E5A7547F4480F5A780CA
:0C10F10008E5A754BF4440F5A702107C9E
:101130008F3D1210A0BF0104E4FD80027D01AF3D90
:0411400012107C22EB
:10107C00EF14601104701CEDC43333335480FFE55E
:10108C00B0547F800BEDC4333354C0FFE5B054BF74
:04109C004FF5B0223A
:1010A000E4FEEF146010047017E5B05480C413130D
:1010B000135401FE800AE5B05440C413135403FED8
:0210C000AF0679
:0110C200220B
:09116900E5A754EF4410F5A7229C
:070F6B0005453F065B4F66E0
:01117A002252
:0811720074452FF8E6F5902208
:10080000020B48E86480F8E933E83360110460F0D3
:10081000ED33EC337009E8FCE9FDEAFEEBFF22045E
:1008200060DED3EB9FEA9EE99DE8C2E78CF0C2F759
:1008300095F0400CE8CCF8E9CDF9EACEFAEBCFFB25
:10084000120B1385D0F05804700320D5B3E8047060
:10085000075002B2D5020B5292D5EC0460F7E4CCFB
:10086000C0E0C398F8603B94186008400DD0E0FBEE
:10087000020B2AE4FBFAC9FC8028E830E406E4C94C
:10088000FBE4CAFCE830E305E4C9CACBFCE8540742
:100890006010F8C3E913F9EA13FAEB13FBEC13FC4D
:1008A000D8F130F52FC3E49CFCEF9BFFEE9AFEEDF0
:1008B00099FDD0E0FBEF4E4D4C701222DB03020B92
:1008C0004FEC2CFCEF33FFEE33FEED33FDED30E764
:1008D000EB020B2AEF2BFFEE3AFEED39FDD0E0FBE9
:1008E00050130BBB0003020B52ED13FDEE13FEEF92
:0808F00013FFEC13FC020B2ABC
:1008F800EC4D6011E8497017ED33EC3304600DE4FA
:10090800FCFFFEFD22E933E8330470F8020B4812BD
:100918000B1358046009E4CC2481500628500902BE
:100928000B52284003020B4FC0E0EB4A7044B980D9
:1009380006D0E0FB020B3EEF4E701CBD8008EBFFBB
:10094800EAFEE9FD80EBE98DF0A4FEE5F00209E19D
:10095800E9CDF9EAFEEBFFEF89F0A4FCE5F0CE89DA
:10096800F0A42EFFE435F0CD89F0A42DFEE435F097
:100978008067EF4E7005BD80D780C3EF8BF0A4ACC5
:10098800F0EE8BF0A42CFCE435F0F8EF8AF0A42C00
:10099800E5F038FCE433CB8DF0A42CFCE5F03BF813
:1009A800EE8AF0A42CFCE5F038F8E433CF89F0A403
:1009B8002CFCE5F038CF3400CE89F0A42FFFE5F009
:1009C8003EFEE433C98DF0A42EFEE5F039CD8AF061
:1009D800A42FFFE5F03EFEE43DFD33D0E0FB5007D9
:1009E8000BBB000F020B52EC2CFCEF33FFEE33FE77
:0609F800ED33FD020B2AA5
:1009FE00020B52EC5D046005E859047003020B48CB
:100A0E00120B13580460F6EC4860F2EC7004FDFE15
:100A1E00FF22C860DB2481C85009C39860025006CB
:100A2E00020B4F9850CAF582E9294B4A7005AB82EA
:100A3E00020B3E75F0007C1A7880C3EF9BEE9AEDA8
:100A4E0099400DC3EF9BFFEE9AFEED99FDE842F043
:100A5E00DC23ACF0D0E0FFD0E0FED0E0FDAB822096
:100A6E00E7101BEB60BAEC2CFCEF33FFEE33FEED20
:100A7E0033FD020B2AE803F830E705C0F075F000ED
:100A8E00EF2FFFEE33FEED33FD40B830E7C280AA04
:100A9E0075F020800E75F010800575F0087D007ED3
:100AAE00007F003392D530D503120B5DEC3340102E
:100ABE00EF33FFEE33FEED33FDEC33FCD5F0ED22DC
:0E0ACE00E5F0247EA2D513CC92E7CDCEFF2218
:100ADC00EDD2E7CD33EC3392D524814006E4FFFE12
:100AEC00FDFC22FCE4CFCECDCC24E0501174FF8071
:100AFC00EDC3CC13CCCD13CDCE13CECF13CF04700E
:070B0C00F030D5DE020B5DA5
:100B1300E9D2E7C933E833F892D5EDD2E7CD33EC28
:070B230033FC5002B2D522A1
:100B2A00EC30E7100FBF000C0EBE00080DBD00042C
:100B3A000BEB6014A2D5EB13FCED92E7FD2274FFD8
:100B4A00FCFDFEFF22E480F8A2D574FF13FC7D8031
:030B5A00E480EF45
:03000000020D6886
:0C0D6800787FE4F6D8FD758149020DAFDC
:0E0B5D00C3E49FFFE49EFEE49DFDE49CFC22A9
:0C0B6B00E6FC08E6FD08E6FE08E6FF22B6
:100D7400020CCBE493A3F8E493A34003F68001F2BE
:100D840008DFF48029E493A3F85407240CC8C33380
:100D9400C4540F4420C8834004F456800146F6DF4F
:100DA400E4800B0102040810204080900F2FE47EA1
:100DB400019360BCA3FF543F30E509541FFEE49344
:100DC400A360010ECF54C025E060A840B8E493A30B
:100DD400FAE493A3F8E493A3C8C582C8CAC583CA36
:100DE400F0A3C8C582C8CAC583CADFE9DEE780BEEE
:010F7200007E
:00000001FF
