:10094000E4FDFCC3ED9FEC9E5015E4FBFA0BBB00ED
:0F095000010AEB64784A70F50DBD00010C80E4DC
:01095F002275
:0C099000758901E4F58A758C4CD28C222C
:03000B0002086F79
:10086F00C0E0C0F0C083C082C0D075D000C000C04F
:10087F0001C002C003C004C005C006C007E4FF12D8
:10088F00097C7F0112097C7F907E01120940E4FFF1
:10089F0012097C7F0112097CC28CD007D006D005CB
:1008AF00D004D003D002D001D000D0D0D082D083DA
:0508BF00D0F0D0E03292
:030003000209A847
:0509A800C28CD28C326C
:1008C40075FFDE75FFAD75B214E4F5E175E21675DA
:1008D400E340D2AFD2A8D2AAD288D28AD2A912092E
:1008E40090E4FDFF1209607D017F011209607F0819
:0508F40012080080FE67
:10080000EFB40E00506890080DF8282873020837DE
:1008100002083B02083F02084302084702084B0255
:10082000084F0208530208570208670208630208CB
:100830005F02085B02086B53A4FE2253A4FD2253FF
:10084000A4FB2253A4F72253A4EF2253A4DF225384
:10085000A4BF2253A47F2253A7F72253A6FD2253FD
:0F086000A6FB2253A6F72253A6EF2253A6DF22B0
:10096000EF14600D047012E5A7547F4480F5A78052
:0C09700008E5A754BF4440F5A70208F9B1
:10097C008F0812091DBF0104E4FD80027D01AF0840
:04098C001208F92232
:1008F900EF14601104701CEDC43333335480FFE5E9
:10090900B0547F800BEDC4333354C0FFE5B054BFFE
:040919004FF5B022C4
:10091D00E4FEEF146010047017E5B05480C4131397
:10092D00135401FE800AE5B05440C413135403FE62
:02093D00AF0603
:01093F002295
:0300000002099C56
:0C099C00787FE4F6D8FD7581080208C4DD
:00000001FF
